:100000000C9462000C948A000C948A000C948A0070
:100010000C948A000C948A000C948A000C948A0038
:100020000C948A000C948A000C948A000C948A0028
:100030000C948A000C948A000C948A000C948A0018
:100040000C940C030C948A000C948A000C948A0083
:100050000C948A000C948A000C948A000C948A00F8
:100060000C948A000C948A000000000023002600F3
:10007000290000000000240027002A0000000000E2
:10008000250028002B0004040404040404040202D4
:100090000202020203030303030301020408102007
:1000A0004080010204081020010204081020000012
:1000B0000008000201000003040700000000000027
:1000C00000007E0411241FBECFEFD8E0DEBFCDBFFD
:1000D00011E0A0E0B1E0EEE8F9E002C005900D9279
:1000E000AE32B107D9F721E0AEE2B1E001C01D9216
:1000F000A135B207E1F710E0C2E6D0E004C02197D5
:10010000FE010E94BF04C136D107C9F70E94560301
:100110000C94C5040C940000833081F028F48130E5
:1001200099F08230A9F008958730A9F08830C9F09D
:100130008430B1F4809180008F7D03C08091800075
:100140008F7780938000089584B58F7784BD08955C
:1001500084B58F7DFBCF8091B0008F778093B00006
:1001600008958091B0008F7DF9CF1F93CF93DF93D7
:10017000282F30E0F901E255FF4F8491F901E6564E
:10018000FF4FD491F901EA57FF4FC491CC23A9F056
:10019000162F81110E948C00EC2FF0E0EE0FFF1F54
:1001A000E458FF4FA591B4918FB7F894EC911111D9
:1001B00008C0D095DE23DC938FBFDF91CF911F91D4
:1001C0000895DE2BF8CFCF93DF9390E0FC01E65645
:1001D000FF4F24918A579F4FFC0184918823D1F0CF
:1001E00090E0880F991FFC01EE58FF4FA591B49144
:1001F000FC01E458FF4FC591D491623071F49FB770
:10020000F8943C91822F809583238C93E8812E2B48
:1002100028839FBFDF91CF9108958FB7F894EC9119
:100220002E2B2C938FBFF6CF3FB7F89480913501DA
:1002300090913601A0913701B091380126B5A89B65
:1002400005C02F3F19F00196A11DB11D3FBFBA2F68
:10025000A92F982F8827BC01CD01620F711D811D28
:10026000911D42E0660F771F881F991F4A95D1F7AD
:100270000895AF92BF92CF92DF92EF92FF920F93C9
:100280001F93CF93DF936C017B018B01040F151F2C
:10029000EB015E01AE18BF08C017D10759F0699194
:1002A000D601ED91FC910190F081E02DC6010995F8
:1002B000892B79F7C501DF91CF911F910F91FF90A5
:1002C000EF90DF90CF90BF90AF900895089590E0A9
:1002D00080E008958F929F92AF92BF920F931F93E9
:1002E000CF93DF93CDB7DEB7A1970FB6F894DEBFFB
:1002F0000FBECDBF19A2423008F44AE08E010F5D57
:100300001F4F842E912CB12CA12CA50194010E9489
:100310009D04E62FB901CA01EA3044F5E05DD80139
:10032000EE938D01232B242B252B79F790E080E091
:10033000109769F0FD0101900020E9F73197AF01B6
:100340004A1B5B0BBD0189E391E00E943901A19634
:100350000FB6F894DEBF0FBECDBFDF91CF911F91D6
:100360000F91BF90AF909F908F900895E95CD7CF89
:10037000FC0101900020E9F73197AF01481B590BB0
:10038000BC0189E391E00C943901CF93DF93EC0138
:1003900060E08E810E94B50061E08E810E94B50010
:1003A00060E08E810E94B5008BE891E00197F1F743
:1003B000DF91CF910895CF92DF92EF92FF920F934A
:1003C0001F93CF93DF936C017C0187E0E80EF11C53
:1003D000D0E0C0E0062F10E0B8010C2E02C07595E9
:1003E00067950A94E2F76170F70181917F010E949D
:1003F000B5002196C430D10579F7C601DF91CF91C0
:100400001F910F91FF90EF90DF90CF900C94C5015A
:10041000CF92DF92EF92FF920F931F93CF93DF93D0
:10042000EC01F62E642F8C810E94B5008D818F3FE8
:1004300019F060E00E94B5000F2D10E08F8584FF59
:1004400025C06E0187E0C80ED11CF12CE12CB8014B
:100450000E2C02C0759567950A94E2F76170F6015B
:1004600081916F010E94B500FFEFEF1AFF0A88E04B
:10047000E816F10461F7CE01DF91CF911F910F9142
:10048000FF90EF90DF90CF900C94C501B80184E00D
:10049000759567958A95E1F7CE010E94DB016F2D76
:1004A000CE01DF91CF911F910F91FF90EF90DF90E0
:1004B000CF900C94DB0140E0682F89E391E00C942D
:1004C0000802CF93DF93613029F090914801986042
:1004D0009093480160934C0110924D0190E49093E9
:1004E0004E0180934F01805C8093500161E08091C8
:1004F0003D010E94E30080913E018F3F19F061E0D1
:100500000E94E30061E080913F010E94E300C9E3A3
:10051000D1E09E01295331408091480184FD0BC0F8
:1005200084E090E021962817390744F461E08E8139
:100530000E94E300EECF88E090E0F4CF8BE39DE0F3
:100540000197F1F760E080913D010E94B50060E005
:1005500080913F010E94B50080913E018F3F19F0CC
:1005600060E00E94B5008091480184FD39C063E0DD
:1005700089E391E00E94DB01CBE4D6E4CE01019750
:10058000F1F763E089E391E00E94DB012197F1F745
:1005900063E089E391E00E94DB0183E592E001974B
:1005A000F1F762E089E391E00E94DB01809148016C
:1005B00080620E945B0284E0809349018CE00E948B
:1005C0005B0281E00E945B028BE39FE10197F1F700
:1005D00082E080934A0186E0DF91CF910C945B0228
:1005E00080620E945B028BE496E40197F1F78091B0
:1005F000480180620E945B0283E592E00197F1F777
:100600008091480180620E945B02D0CF41E00E944D
:10061000080281E090E008951F920F920FB60F92AA
:1006200011242F933F938F939F93AF93BF93809108
:10063000310190913201A0913301B0913401309198
:10064000300123E0230F2D3758F50196A11DB11D70
:10065000209330018093310190933201A0933301B4
:10066000B09334018091350190913601A09137010A
:10067000B09138010196A11DB11D80933501909371
:100680003601A0933701B0933801BF91AF919F918C
:100690008F913F912F910F900FBE0F901F90189543
:1006A00026E8230F0296A11DB11DD2CF789484B500
:1006B000826084BD84B5816084BD85B5826085BD5E
:1006C00085B5816085BD80916E00816080936E00EC
:1006D00010928100809181008260809381008091DE
:1006E000810081608093810080918000816080938F
:1006F00080008091B10084608093B1008091B0004F
:1007000081608093B00080917A00846080937A0049
:1007100080917A00826080937A0080917A00816073
:1007200080937A0080917A00806880937A0010929A
:10073000C10062E087E00E94E30061E084E00E9483
:10074000E30064E084E10E946102E1E080914C01F9
:100750008111E0E0E195F0E0E75CFE4F848980687C
:100760000E945B028CE091E00E94B801E0914C0194
:10077000E43008F0A9C0E150F0E0E75CFE4F848966
:1007800080680E945B0281E291E00E94B801C09003
:100790002E01D0902F010D2C000CEE08FF084AE02E
:1007A000C701B601F7FE0EC041E06DE289E391E0BA
:1007B0000E94080266277727CB016C197D098E09F4
:1007C0009F094AE00E946A018BE291E00E94B80111
:1007D00025EB822E20E0922EC1EAD0E00DE810E059
:1007E00030E0A32E30E0B32EF4018491FE01E490BA
:1007F000F801F490F1106AC080912E0190912F01C0
:10080000019690932F0180932E01E0914C01E430EA
:1008100008F472C0E3E0F0E0E75CFE4F8489806892
:100820000E945B0281E291E00E94B801C0902E011B
:10083000D0902F010D2C000CEE08FF084AE0C701F4
:10084000B601F7FE0EC041E06DE289E391E00E943F
:10085000080266277727CB016C197D098E099F094D
:100860004AE00E946A018BE291E00E94B80161E0D7
:1008700084E00E94B5000E9414012B013C0188EC29
:10088000C82ED12CE12CF12C0E9414016419750999
:1008900086099709683E734081059105A8F3F1E048
:1008A000CF1AD108E108F10828EE420E23E0521ECB
:1008B000611C711CC114D104E104F10429F760E04A
:1008C00084E00E94B50011C0E3E056CF81110E9480
:1008D0008C00EF2DF0E0EE0FFF1FE859FF4FA591C0
:1008E000B4918C91E82209F487CFA114B10409F4E2
:1008F0007BCF0E94000078CFE1508DCFE9E3F1E09B
:100900001382128284E091E0918380838DE084835E
:100910008FEF85838CE086838BE087838AE08087F6
:1009200089E0818788E0828713861486158616867B
:10093000178661E080E10C946102A1E21A2EAA1BE5
:10094000BB1BFD010DC0AA1FBB1FEE1FFF1FA2177F
:10095000B307E407F50720F0A21BB30BE40BF50B7C
:10096000661F771F881F991F1A9469F76095709505
:10097000809590959B01AC01BD01CF010895EE0FCC
:0E098000FF1F0590F491E02D0994F894FFCF2D
:10098E0000000000060339016701660120507573EF
:10099E006820427574746F6E20436F756E74657245
:0E09AE000020436F756E74733A200020200005
:00000001FF
